:100000000C9462000C948A000C948A000C948A0070
:100010000C948A000C948A000C948A000C948A0038
:100020000C948A000C948A000C948A000C94C805E5
:100030000C948A000C948A000C948A000C948A0018
:100040000C947E050C948A000C944C050C942605A7
:100050000C948A000C948A000C948A000C948A00F8
:100060000C948A000C948A000000000024002700F1
:100070002A0000000000250028002B0000000008D6
:10008000000201000003040700000000000000005F
:1000900000000000230026002900040404040404D6
:1000A0000404020202020202030303030303010227
:1000B00004081020408001020408102001020408F6
:1000C0001020C90611241FBECFEFD8E0DEBFCDBF80
:1000D00011E0A0E0B1E0E2E5F7E102C005900D9289
:1000E000A037B107D9F722E0A0E7B1E001C01D9227
:1000F000AF35B207E1F710E0C2E6D0E004C02197C7
:10010000FE010E94A10BC136D107C9F70E94590711
:100110000C94A70B0C9400008F929F92AF92BF9209
:10012000FF920F931F93CF93DF93F0905C022BE02D
:100130002F1508F44CC020915E0208E512E0021B66
:10014000110927FD1395000F111F000F111F20919A
:100150005D02C8E8D0E0C21BD10927FDD395CC0FC2
:10016000DD1FCC0FDD1F4E010D2E000CAA08BB08B1
:100170009801012E000C440B550B281939094A0926
:100180005B09DC010E942B0A24EB30E040E050E0E8
:100190000E94010A820E931EA41EB51E8C169D0697
:1001A0002CF0E801801691060CF4E4012297CC0FA4
:1001B000DD1F2FB7F8948F2D90E0FC01EE0FFF1F8D
:1001C000E80FF91FE35EFD4FD283C1832FBFDF919C
:1001D000CF911F910F91FF90BF90AF909F908F9004
:1001E00008958F929F92AF92BF92CF92DF92EF923B
:1001F000FF9280915E0258E5C52E52E0D52EC81AB6
:10020000D10887FDD394CC0CDD1CCC0CDD1C0D2C4F
:10021000000CEE08FF0880915D0278E8872E912C93
:10022000881A910887FD9394880C991C880C991C56
:10023000092C000CAA08BB0880915C028F3FD1F109
:1002400090E0FC01EE0FFF1FE80FF91FE35EFD4F8A
:100250008181928133E0880F991F3A95E1F7B0E0F0
:10026000A0E044E0B595A795979587954A95D1F775
:1002700002969C012F5F3F4F032E000C440B550B41
:10028000281939094A095B09A4EBB0E00E94200A49
:10029000A7019601281939094A095B090E94010A38
:1002A000C901FF90EF90DF90CF90BF90AF909F90EB
:1002B0008F90089590E080E0DCCFAF92BF92CF9214
:1002C000DF92EF92FF920F931F93CF93DF936C0116
:1002D0007B018B01040F151FEB015E01AE18BF08F7
:1002E000C017D10759F06991D601ED91FC910190A9
:1002F000F081E02DC6010995892B79F7C501DF91C1
:10030000CF911F910F91FF90EF90DF90CF90BF9012
:10031000AF900895FC01538D448D252F30E0842F3C
:1003200090E0821B930B541710F0CF96089501971D
:100330000895FC01918D828D981761F0A28DAE0F0A
:10034000BF2FB11D5D968C91928D9F5F9F73928F91
:1003500090E008958FEF9FEF0895FC01918D828DBD
:10036000981731F0828DE80FF11D858D90E008958A
:100370008FEF9FEF0895FC01918D228D892F90E0E2
:10038000805C9F4F821B91098F739927089580E8A5
:1003900091E00E94BB0121E0892B09F420E0822F2B
:1003A000089580E090E0892B29F00E94C701811117
:1003B0000C9400000895FC01A48DA80FB92FB11D65
:1003C000A35ABF4F2C91848D90E001968F7399278B
:1003D000848FA689B7892C93A089B1898C91837069
:1003E00080648C93938D848D981306C00288F38962
:1003F000E02D80818F7D80830895EF92FF920F938F
:100400001F93CF93DF93EC0181E0888F9B8D8C8DC0
:1004100098131AC0E889F989808185FF15C09FB7B4
:10042000F894EE89FF896083E889F9898081837077
:10043000806480839FBF81E090E0DF91CF911F9126
:100440000F91FF90EF900895F62E0B8D10E00F5F47
:100450001F4F0F731127E02E8C8D8E110CC00FB61D
:1004600007FCFACFE889F989808185FFF5CFCE01B5
:100470000E94DB01F1CFEB8DEC0FFD2FF11DE35A54
:10048000FF4FF0829FB7F8940B8FEA89FB89808138
:100490008062CFCFCF93DF93EC01888D8823B9F0B2
:1004A000AA89BB89E889F9898C9185FD03C080817F
:1004B00086FD0DC00FB607FCF7CF8C9185FFF2CFFC
:1004C000808185FFEDCFCE010E94DB01E9CFDF9176
:1004D000CF910895833081F028F4813099F08230F3
:1004E000A9F008958730A9F08830C9F08430B1F4BC
:1004F000809180008F7D03C0809180008F778093F2
:100500008000089584B58F7784BD089584B58F7D6C
:10051000FBCF8091B0008F778093B00008958091D9
:10052000B0008F7DF9CFCF93DF93282F30E0F90112
:10053000E458FF4F8491F901E255FF4FD491F9013E
:10054000E656FF4FC491CC23A1F081110E946A02AC
:10055000EC2FF0E0EE0FFF1FE057FF4FA591B49195
:10056000EC91ED2381E090E009F480E0DF91CF9100
:10057000089580E090E0FACF1F93CF93DF93282F68
:1005800030E0F901E458FF4F8491F901E255FF4F43
:10059000D491F901E656FF4FC491CC23A9F0162F50
:1005A00081110E946A02EC2FF0E0EE0FFF1FEE585F
:1005B000FF4FA591B4918FB7F894EC91111108C039
:1005C000D095DE23DC938FBFDF91CF911F910895EB
:1005D000DE2BF8CFCF93DF9390E0FC01E255FF4F85
:1005E000249186569F4FFC0184918823D1F090E09E
:1005F000880F991FFC01E859FF4FA591B491FC01A8
:10060000EE58FF4FC591D49161110EC09FB7F89479
:100610008C91E22FE0958E238C932881E223E8834E
:100620009FBFDF91CF9108958FB7F894EC91E22BA3
:10063000EC938FBFF6CF3FB7F894809176019091FD
:100640007701A0917801B091790126B5A89B05C0EA
:100650002F3F19F00196A11DB11D3FBFBA2FA92F41
:10066000982F8827BC01CD01620F711D811D911D3E
:1006700042E0660F771F881F991F4A95D1F70895AA
:10068000089590E080E00895CF93DF93EC0160E05F
:100690008E810E94BC0261E08E810E94BC0260E0FB
:1006A0008E810E94BC028BE891E00197F1F7DF9107
:1006B000CF910895CF92DF92EF92FF920F931F9305
:1006C000CF93DF936C017C0187E0E80EF11CD0E052
:1006D000C0E0062F10E0B8010C2E02C0759567959A
:1006E0000A94E2F76170F70181917F010E94BC02D8
:1006F0002196C430D10579F7C601DF91CF911F91C2
:100700000F91FF90EF90DF90CF900C944403CF9225
:10071000DF92EF92FF920F931F93CF93DF93EC0141
:10072000F62E642F8C810E94BC028D818F3F19F0C0
:1007300060E00E94BC020F2D10E08F8584FF25C071
:100740006E0187E0C80ED11CF12CE12CB8010E2CF3
:1007500002C0759567950A94E2F76170F601819180
:100760006F010E94BC02FFEFEF1AFF0A88E0E81653
:10077000F10461F7CE01DF91CF911F910F91FF90AE
:10078000EF90DF90CF900C944403B80184E075950E
:1007900067958A95E1F7CE010E945A036F2DCE012D
:1007A000DF91CF911F910F91FF90EF90DF90CF904D
:1007B0000C945A0340E0682F84E492E00C94870381
:1007C000CF93DF93823029F49091530298609093F5
:1007D0005302809357021092580280E4809359028A
:1007E00080E180935A0280E580935B0261E0809112
:1007F00048020E94EA02809149028F3F19F061E0AD
:100800000E94EA0261E080914A020E94EA02C4E486
:10081000D2E09E01245432408091530284FD0BC0EB
:1008200084E090E021962817390744F461E08E8136
:100830000E94EA02EECF88E090E0F4CF8BE39DE0E7
:100840000197F1F760E0809148020E94BC0260E0ED
:1008500080914A020E94BC02809149028F3F19F0A8
:1008600060E00E94BC028091530284FD39C063E0C5
:1008700084E492E00E945A03CBE4D6E4CE010197CF
:10088000F1F763E084E492E00E945A032197F1F7C4
:1008900063E084E492E00E945A0383E592E00197CA
:1008A000F1F762E084E492E00E945A0380915302DF
:1008B00080620E94DA0384E0809354028CE00E94FC
:1008C000DA0381E00E94DA038BE39FE10197F1F7FD
:1008D00082E08093550286E0DF91CF910C94DA0399
:1008E00080620E94DA038BE496E40197F1F780912D
:1008F000530280620E94DA0383E592E00197F1F7E8
:100900008091530280620E94DA03D0CF41E00E94BE
:10091000870381E090E00895FB0101900020E9F752
:100920003197AF01461B570BDC01ED91FC91028022
:10093000F381E02D09944F925F926F927F928F9294
:100940009F92AF92BF92CF92DF92EF92FF920F935E
:100950001F93CF93DF93CDB7DEB7A1970FB6F8946F
:10096000DEBF0FBECDBF8C016B01770FEE08FF0815
:10097000F7FE49C0DC01ED91FC910190F081E02D82
:100980006DE209955C0122273327A9012C193D0945
:100990004E095F0919A2FE01B1967F019AE0492E26
:1009A000512C612C712CCA01B901A30192010E9442
:1009B000330A605DD7016E937D0121153105410534
:1009C000510589F790E080E0109721F0BD01C80142
:1009D0000E948C048A0D9B1DA1960FB6F894DEBF71
:1009E0000FBECDBFDF91CF911F910F91FF90EF9080
:1009F000DF90CF90BF90AF909F908F907F906F903F
:100A00005F904F900895A701960119A2FE01B1963B
:100A10007F018AE0882E912CA12CB12CCA01B9014A
:100A2000A50194010E94330A605DD7016E937D0198
:100A3000211531054105510589F790E080E01097B7
:100A400059F2BD01C8010E948C04C6CF1F920F92BB
:100A50000FB60F9211242F933F934F935F936F9391
:100A60007F938F939F93AF93BF93EF93FF9380E810
:100A700091E00E94DB01FF91EF91BF91AF919F91B7
:100A80008F917F916F915F914F913F912F910F9037
:100A90000FBE0F901F9018951F920F920FB60F92D6
:100AA00011242F938F939F93EF93FF93E0919001E5
:100AB000F09191018081E0919601F091970182FD82
:100AC0001BC09081809199018F5F8F7320919A0153
:100AD000821741F0E0919901F0E0E058FE4F958FC8
:100AE00080939901FF91EF919F918F912F910F909A
:100AF0000FBE0F901F9018958081F4CF1F920F9218
:100B00000FB60F9211242F933F938F939F93AF9320
:100B1000BF938091720190917301A0917401B09183
:100B200075013091710123E0230F2D3758F501969F
:100B3000A11DB11D209371018093720190937301E7
:100B4000A0937401B0937501809176019091770123
:100B5000A0917801B09179010196A11DB11D8093FA
:100B6000760190937701A0937801B0937901BF91BA
:100B7000AF919F918F913F912F910F900FBE0F904A
:100B80001F90189526E8230F0296A11DB11DD2CF04
:100B90001F920F920FB60F9211242F933F934F93F2
:100BA0005F936F937F938F939F93AF93BF93CF93F5
:100BB000DF93EF93FF9380917001C0914102D0E0E9
:100BC00087FF24C0109285001092840080917001EC
:100BD0008F5F8093700180917001082E000C990B3B
:100BE0008C179D0724F4809170018C30C4F18091A2
:100BF000840090918500049680349C4908F47AC062
:100C00008091840090918500049676C08091700157
:100C1000082E000C990B8C179D07C4F6E09170010B
:100C20008E2FEE0F990BFC01EE0FFF1FE80FF91F3F
:100C3000E35EFD4F808186FFC9CFE09170018E2F6A
:100C4000EE0F990BFC01EE0FFF1FE80FF91FE35E9B
:100C5000FD4F808160E08F730E94BC02B7CF20916E
:100C6000840030918500E09170018E2FEE0F990B7A
:100C7000FC01EE0FFF1FE80FF91FE35EFD4F8181BE
:100C80009281820F931F9093890080938800E09156
:100C900070018E2FEE0F990BFC01EE0FFF1FE80F76
:100CA000F91FE35EFD4F808186FF11C0E091700166
:100CB0008E2FEE0F990BFC01EE0FFF1FE80FF91FAF
:100CC000E35EFD4F808161E08F730E94BC02FF9163
:100CD000EF91DF91CF91BF91AF919F918F917F91D4
:100CE0006F915F914F913F912F910F900FBE0F9099
:100CF0001F90189580E49CE9909389008093880068
:100D00008FEF80937001E3CFCF92DF92EF92FF924B
:100D10000F931F93E82FF92F05C0015011092109E6
:100D2000310961F1908196239417B9F305C0015000
:100D300011092109310911F1908196239413F7CFFC
:100D4000C12CD12CE12CF12C0AC08FEFC81AD80A83
:100D5000E80AF80A0C151D052E053F0579F080817B
:100D60008623841791F36C2D7D2D8E2D9F2D1F9141
:100D70000F91FF90EF90DF90CF90089560E070E0CA
:100D800080E090E01F910F91FF90EF90DF90CF9067
:100D90000895109283011092820188EE93E0A0E002
:100DA000B0E08093840190938501A0938601B09375
:100DB000870188E091E0909381018093800185EC28
:100DC00090E090938D0180938C0184EC90E090935F
:100DD0008F0180938E0180EC90E09093910180933D
:100DE000900181EC90E0909393018093920182ECCA
:100DF00090E0909395018093940186EC90E090931D
:100E00009701809396011092990110929A01109285
:100E10009B0110929C01809141028C3008F045C0EA
:100E200091E0980F9093410280935C0290E0FC0166
:100E3000EE0FFF1FE80FF91FE35EFD4F88EB9BE00D
:100E40009283818310924702109246028AE191E0D8
:100E500090934502809344028CE0809348028FEF88
:100E6000809349028BE080934A028EE080934B028C
:100E70008FE080934C0280E180934D0281E180936A
:100E80004E0210924F021092500210925102109294
:100E900052021092530281E00E94E00382E090E04F
:100EA000909343028093420208958FEF80935C02F7
:100EB000C9CF789484B5826084BD84B5816084BDD7
:100EC00085B5826085BD85B5816085BD80916E00E8
:100ED000816080936E001092810080918100826019
:100EE0008093810080918100816080938100809156
:100EF00080008160809380008091B1008460809345
:100F0000B1008091B00081608093B00080917A0040
:100F1000846080937A0080917A00826080937A0066
:100F200080917A00816080937A0080917A00806855
:100F300080937A001092C10080915C028C3008F09E
:100F400051C061E086E00E94EA0280915C02282F95
:100F500030E0F901EE0FFF1FE20FF31FE35EFD4FDC
:100F60009081907C9660908310925D0210925E0258
:100F70002CE0622F0E94950B829FB001112430E07B
:100F800020E0AB01420F531FFA01EE0FFF1FE40FE9
:100F9000F51FE35EFD4F908196FD16C02F5F3F4F1A
:100FA0002C30310571F781110FC01092800082E062
:100FB000809381001092850010928400B19A8091F4
:100FC0006F00826080936F00E0915C028E2F90E052
:100FD000FC01EE0FFF1FE80FF91FE35EFD4F80815C
:100FE0008064808361E089E00E94EA0260E08AE038
:100FF0000E94EA0260E082E00E94EA0260E083E090
:101000000E94EA0261E084E00E94EA0261E085E079
:101010000E94EA0261E087E00E94EA0261E088E063
:101020000E94EA0282E00E94E00362E271E084E44E
:1010300092E00E948C04E0915702E23008F095C1E2
:10104000E150F0E0EC5BFD4F848980680E94DA0398
:1010500067E371E084E492E00E948C0460914202B4
:101060007091430284E492E00E949B04E09190011D
:10107000F091910182E08083E0918C01F0918D01EB
:101080001082E0918E01F0918F018FEC808310929D
:101090009801E0919401F091950186E08083E091C0
:1010A0009201F0919301808180618083E0919201AF
:1010B000F0919301808188608083E0919201F091AA
:1010C0009301808180688083E0919201F091930187
:1010D00080818F7D808390E080E00E948C0023E0FF
:1010E000222E312CC3E2D0E030E0A32E30E0B32E2C
:1010F00042E0842E912C60E089E00E94BC02C10194
:101100000197F1F761E089E00E94BC02CE010197EE
:10111000F1F760E089E00E94BC02E8EBF0E0649146
:10112000E4EAF0E08491E82FF0E0EE0FFF1FE057D3
:10113000FF4F8591949100E412E42FE030E0462FB8
:101140000E948406611571058105910529F06F5F84
:101150007F4F8F4F9F4F9F700E949C0A26E933E478
:101160004BE05DE30E94000B20E030E040E05FE3F5
:101170000E94000B0E94640A70937F0160937E01BD
:1011800067E471E080E891E00E948C0460917E0148
:1011900070917F0180E891E00E949B0462E571E01C
:1011A00080E891E00E948C0466E571E080E891E0BF
:1011B0000E948C0480917E0190917F0107970CF032
:1011C000D6C08091420290914302181619060CF085
:1011D000CEC08AE590E00E948C0082E00E949302DB
:1011E0007C0190937D0180937C01809142029091DB
:1011F0004302E114F10409F0BDC0209102013091D5
:1012000003012130310581F4181619062CF40197D9
:10121000909343028093420261E084E00E94BC020A
:1012200060E085E00E94BC02F0920301E0920201BE
:1012300083E00E9493027C0190937B0180937A016A
:101240008091420290914302E114F10409F0ACC094
:1012500020910001309101012130310581F41816EF
:1012600019062CF40197909343028093420261E0A7
:1012700087E00E94BC0260E088E00E94BC02F0921D
:101280000101E0920001809142029091430297FF98
:10129000A5C01092430210924202E0915702E23040
:1012A00008F0A4C0E150F0E0EC5BFD4F8489806859
:1012B0000E94DA0369E571E084E492E00E948C0404
:1012C000609142027091430284E492E00E949B0488
:1012D0006BE671E084E492E00E948C0480917E01D0
:1012E00090917F0107970CF083C00E94F100892B39
:1012F00059F480914202909143021816190624F481
:101300008AE590E00E948C000E941B032B013C01A7
:1013100084EFC82EDD24D394E12CF12C0E941B0312
:101320006419750986099709683E7340810591051E
:10133000A8F381E0C81AD108E108F108E8EE4E0EE2
:10134000E3E05E1E611C711CC114D104E104F104D0
:1013500029F7A114B10409F4CECE0E94C701882355
:1013600009F4C9CE0E940000C6CEE1E06ACE90E04A
:1013700080E031CFF1E0EF16F10409F055CF209174
:10138000020130910301232B09F04ECF82309105E9
:101390002CF40196909343028093420260E084E033
:1013A0000E94BC0261E03DCF21E0E216F10409F0A9
:1013B00066CF2091000130910101232B09F05FCF0E
:1013C000823091052CF4019690934302809342025F
:1013D00060E087E00E94BC0261E04ECF03970CF40E
:1013E0005CCF909243028092420257CFE1E05BCF04
:1013F0000E94F1008A35910509F086CF90E080E0E7
:1014000081CF052E97FB1EF400940E94180A57FD09
:1014100007D00E94330A07FC03D04EF40C94180A3C
:1014200050954095309521953F4F4F4F5F4F089510
:1014300090958095709561957F4F8F4F9F4F089540
:101440000E94550AA59F900DB49F900DA49F800DFA
:10145000911D11240895B7FF0C94200A0E94200AC0
:10146000821B930B0895A1E21A2EAA1BBB1BFD0140
:101470000DC0AA1FBB1FEE1FFF1FA217B307E40773
:10148000F50720F0A21BB30BE40BF50B661F771FCB
:10149000881F991F1A9469F76095709580959095AB
:1014A0009B01AC01BD01CF010895A29FB001B39F84
:1014B000C001A39F700D811D1124911DB29F700D5D
:1014C000811D1124911D08950E946B0A6894B11129
:1014D0000C94FA0A08950E94DF0A88F09F5798F04A
:1014E000B92F9927B751B0F0E1F0660F771F881F29
:1014F000991F1AF0BA95C9F714C0B13091F00E9443
:10150000F90AB1E008950C94F90A672F782F88271B
:10151000B85F39F0B93FCCF3869577956795B39569
:10152000D9F73EF490958095709561957F4F8F4FD8
:101530009F4F0895E89409C097FB3EF490958095DD
:10154000709561957F4F8F4F9F4F9923A9F0F92F89
:1015500096E9BB279395F695879577956795B79507
:10156000F111F8CFFAF4BB0F11F460FF1BC06F5FED
:101570007F4F8F4F9F4F16C0882311F096E911C0FF
:10158000772321F09EE8872F762F05C0662371F020
:1015900096E8862F70E060E02AF09A95660F771F34
:1015A000881FDAF7880F9695879597F9089557FD64
:1015B0009058440F551F59F05F3F71F04795880FC1
:1015C00097FB991F61F09F3F79F087950895121658
:1015D00013061406551FF2CF4695F1DF08C0161604
:1015E00017061806991FF1CF8695710561050894B5
:1015F0000895E894BB2766277727CB0197F90895CC
:101600000E94130B0C94840B0E94760B38F00E94FE
:101610007D0B20F0952311F00C946D0B0C94730B43
:1016200011240C94FA0A0E94D70A70F3959FC1F313
:10163000950F50E0551F629FF001729FBB27F00D80
:10164000B11D639FAA27F00DB11DAA1F649F6627D5
:10165000B00DA11D661F829F2227B00DA11D621F24
:10166000739FB00DA11D621F839FA00D611D221FDE
:10167000749F3327A00D611D231F849F600D211DC2
:10168000822F762F6A2F11249F5750409AF0F1F045
:1016900088234AF0EE0FFF1FBB1F661F771F881FAE
:1016A00091505040A9F79E3F510580F00C946D0B6E
:1016B0000C94FA0A5F3FE4F3983ED4F3869577954D
:1016C0006795B795F795E7959F5FC1F7FE2B880F54
:1016D000911D9695879597F9089597F99F6780E8EA
:1016E00070E060E008959FEF80EC089500240A9474
:1016F0001616170618060906089500240A941216ED
:101700001306140605060895092E0394000C11F41F
:10171000882352F0BB0F40F4BF2B11F460FF04C0CC
:101720006F5F7F4F8F4F9F4F0895991B79E004C0E3
:10173000991F961708F0961B881F7A95C9F7809510
:101740000895EE0FFF1F0590F491E02D0994F89491
:02175000FFCFC9
:101752000100010000000000FD015D018A014A0252
:10176200BB019901AD010000000086045D01410347
:101772004003536D617274205061726B696E672011
:1017820053797374656D00536C6F747320456E6783
:10179200616765643A200044697374616E63653AF7
:1017A200200020636D000D0A00536C6F747320419A
:1017B2007661696C61626C653A200020202000002D
:00000001FF
